:020000040800F2
:1000000000000220AD2C0008792C00087B2C000891
:100010007D2C00087F2C0008812C000800000000C7
:100020000000000000000000000000003112000885
:10003000832C000800000000C112000825130008EE
:10004000FD2C0008FD2C0008FD2C0008FD2C0008EC
:10005000FD2C0008FD2C0008FD2C0008FD2C0008DC
:10006000FD2C0008FD2C0008FD2C0008FD2C0008CC
:10007000FD2C0008FD2C0008FD2C0008FD2C0008BC
:10008000FD2C0008FD2C0008FD2C0008FD2C0008AC
:10009000FD2C0008FD2C0008FD2C0008FD2C00089C
:1000A000FD2C0008FD2C0008FD2C0008FD2C00088C
:1000B000FD2C0008FD2C0008FD2C0008FD2C00087C
:1000C000FD2C0008FD2C0008FD2C0008FD2C00086C
:1000D000FD2C0008FD2C0008FD2C0008FD2C00085C
:1000E000FD2C0008FD2C0008FD2C0008FD2C00084C
:1000F000FD2C0008FD2C0008FD2C0008FD2C00083C
:10010000FD2C0008FD2C0008FD2C0008FD2C00082B
:10011000FD2C0008FD2C0008FD2C0008852C000893
:10012000FD2C0008FD2C0008FD2C0008FD2C00080B
:10013000FD2C0008FD2C0008FD2C0008FD2C0008FB
:10014000FD2C0008FD2C0008FD2C0008FD2C0008EB
:10015000FD2C0008FD2C0008FD2C0008FD2C0008DB
:10016000FD2C0008FD2C0008FD2C0008FD2C0008CB
:10017000FD2C0008FD2C0008FD2C000800000000EC
:08018000FD2C0008FD2C000815
:1001900010B5054C237833B9044B13B10448AFF3C1
:1001A00000800123237010BD10000020000000001B
:1001B000702D000808B5034B1BB103490348AFF38A
:1001C000008008BD0000000014000020702D000811
:1001D00053B94AB9002908BF00281CBF4FF0FF31AE
:1001E0004FF0FF3000F07AB9ADF1080C6DE904CEA4
:1001F00000F006F8DDF804E0DDE9022304B0704702
:100200002DE9F0478C460D460446089E002B51D13F
:100210008A4217466DD9B2FA82FEBEF1000F0BD0AA
:10022000CEF1200C01FA0EF520FA0CFC02FA0EF7C2
:100230004CEA050C00FA0EF44FEA174A250CBCFBF9
:10024000FAF81FFA87F90AFB18CC45EA0C4508FBB7
:1002500009F3AB420AD9ED1908F1FF3280F023818E
:10026000AB4240F22081A8F102083D44ED1AA4B24D
:10027000B5FBFAF00AFB105544EA054400FB09F906
:10028000A14509D9E41900F1FF3380F00A81A145A5
:1002900040F2078102383C44A4EB090440EA0840DC
:1002A0000021002E61D024FA0EF400233460736024
:1002B000BDE8F0878B4207D9002E54D0002186E894
:1002C00021000846BDE8F087B3FA83F1002940F029
:1002D0008E80AB4202D3824200F2FA80841A65EB30
:1002E00003050120AC46002E3FD086E81010BDE883
:1002F000F08712B90127B7FBF2F7B7FA87FEBEF114
:10030000000F34D1EB1B3A0C1FFA87FC0121B3FB21
:10031000F2F8250C02FB183345EA03450CFB08F301
:10032000AB4207D9ED1908F1FF3002D2AB4200F21F
:10033000D1808046ED1AA3B2B5FBF2F002FB105556
:1003400043EA05440CFB00FCA44507D9E41900F17D
:10035000FF3302D2A44500F2B8801846A4EB0C0487
:1003600040EA08409DE731463046BDE8F087CEF1CF
:10037000200405FA0EF307FA0EF720FA04F83A0CF7
:1003800025FA04F448EA0308B4FBF2F14FEA1845F1
:1003900002FB11441FFA87FC45EA044501FB0CF3FC
:1003A000AB4200FA0EF409D9ED1901F1FF3080F0EB
:1003B0008A80AB4240F2878002393D44EB1A1FFA33
:1003C00088F5B3FBF2F002FB103345EA034500FB6E
:1003D0000CF3AB4207D9ED1900F1FF386FD2AB42F5
:1003E0006DD902383D44EB1A40EA01418FE7C1F173
:1003F000200722FA07F88B4005FA01F448EA0303C4
:1004000020FA07FE4FEA134CFD404EEA040EB5FBFE
:10041000FCF94FEA1E440CFB19551FFA83F844EA15
:10042000054509FB08F4AC4202FA01F200FA01FAB0
:1004300008D9ED1809F1FF3043D2AC4241D9A9F1F6
:1004400002091D442D1B1FFA8EFEB5FBFCF00CFBB0
:1004500010554EEA054400FB08F8A04507D9E418FA
:1004600000F1FF3529D2A04527D902381C4440EAC3
:100470000940A4EB0804A0FB02894C45C6464D4642
:1004800015D312D056B1BAEB0E0364EB050404FA8F
:1004900007F7CB401F43CC40376074600021BDE8B4
:1004A000F0871846F8E69046E0E6C245EAD2B8EB97
:1004B000020E69EB03050138E4E72846D7E740461A
:1004C00091E78146BEE7014678E702383C4445E7BC
:1004D000084608E7A8F102083D442BE7704700BF33
:1004E00008B50B4B1A6842F400721A601A6842F49D
:1004F00080621A601A6842F480721A60032000F069
:100500001BF8002002F07AFB02F056FB002008BD29
:10051000003C0240034A044B11681B780B441360F3
:10052000704700BFF048002000000020014B186811
:10053000704700BFF0480020074AD36823F4E06307
:100540001B041B0C43F0BF63000243F4003300F4B0
:10055000E0600343D360704700ED00E0174B30B517
:10056000DC68C4F30224C4F10703251D042B28BF53
:100570000423062D4FF0010505FA03F303F1FF33C1
:100580008CBF033C00241940A14005FA04F4013C4F
:100590002240002842EA01024FEA0212ADBF00F1F8
:1005A000604000F00F00064B00F56140B5BFD2B2CD
:1005B000D2B21A5480F8002330BD00BF00ED00E035
:1005C00014ED00E0002808DB4209012300F01F00C1
:1005D00003FA00F0014B43F82200704700E100E00D
:1005E0002DE9F04F85B00B68DFF8AC81684ADFF881
:1005F000AC91019300230124019D9C402540AC4215
:1006000040F0B0804C6824F0100C0CF1FF36012E45
:100610004FEA430E12D88768032606FA0EF627EA39
:100620000607CE6806FA0EF63E4386604768C4F3B6
:10063000001627EA05079E403E4346600326C7682A
:1006400006FA0EF6F64307EA060A8F6807FA0EF76F
:1006500047EA0A07BCF1020FC76016D14FEAD30A76
:1006600000EB8A0A03F0070BDAF820704FEA8B0BD5
:100670004FF00F0C0CFA0BFC27EA0C0C0F6907FA71
:100680000BF747EA0C07CAF8207007683E4004F0F1
:10069000030707FA0EFE4EEA06060660E60061D57D
:1006A0004FF0000BCDF80CB0D8F84470394E47F439
:1006B0008047C8F84470D8F8447007F4804703971F
:1006C000039F23F0030707F1804707F59C3703F0EA
:1006D000030CD7F808A04FEA8C0C4FF00F0E0EFA5F
:1006E0000CFEB0422AEA0E0E43D006F58066B042F8
:1006F00041D006F58066B0423FD006F58066B04234
:100700003DD006F58066B0423BD048453BD006F56B
:100710000066B04239D006F58066B04214BF0826A4
:10072000072606FA0CF646EA0E06BE601668EF4388
:1007300014F4803F0CBF3E402E431660566814F4FC
:10074000003F0CBF3E402E435660966814F4801F55
:100750000CBF3E402E439660D668A40254BF3E4074
:100760002E43D6600133102B7FF445AF05B0BDE8B2
:10077000F08F5E46D5E70126D3E70226D1E70326B0
:10078000CFE70426CDE70526CBE70626C9E700BF5D
:10079000003C0140000002400038024000140240CA
:1007A0000AB1816170470904FBE7436931EA030339
:1007B00008BF0904816170472DE9F341044608B977
:1007C00001203FE00368DD0710D4236898075AD45E
:1007D00023681A0700F19C8023685B0700F1BA8048
:1007E000A069002840F01B8100202BE0A44B9A68F0
:1007F00002F00C02042A07D09A6802F00C02082AC0
:100800000AD15B68590207D59D4B1B689A03DCD55A
:100810006368002BD9D1D3E76368994DB3F5803F66
:1008200013D12B6843F480332B60FFF77FFE944D88
:1008300006462B689B03C8D4FFF778FE801B64280C
:10084000F7D9032002B0BDE8F081B3F5A02F04D1A1
:100850002B6843F480232B60E3E72A6822F480327C
:100860002A602A6822F480222A60002BDDD1FFF75B
:100870005DFE06462B689F03A7D5FFF757FE801B3A
:100880006428F7D9DDE77E4B9A6812F00C0F07D089
:100890009A6802F00C02082A11D15B685E020ED43D
:1008A000774B1A68950702D5E268012A88D11A6841
:1008B000216922F0F80242EAC1021A6088E7E26880
:1008C000704BB2B101221A60FFF730FE6C4D064644
:1008D0002B68980707D52B68226923F0F80343EAB1
:1008E000C2032B6074E7FFF721FE801B0228EFD9BB
:1008F000A7E71A60FFF71AFE614D06462B689907B5
:100900007FF566AFFFF712FE801B0228F6D998E745
:1009100062695D4B7AB101221A60FFF707FE584DFC
:1009200006466B6F9F073FF557AFFFF7FFFD801B34
:100930000228F6D985E71A60FFF7F8FD504D064604
:100940006B6F98077FF548AFFFF7F0FD801B02281B
:10095000F6D976E74A4B1A6C12F0805228D10192F0
:100960001A6C42F080521A641B6C03F0805301939E
:10097000019B0126454D2B68D9051BD5A368404D29
:10098000012B27D12B6F43F001032B67FFF7CEFD1F
:100990003B4D074641F288382B6F9B0739D5002E17
:1009A0003FF41EAF364A136C23F08053136417E7ED
:1009B0000026DFE72B6843F480732B60FFF7B6FD5A
:1009C00007462B68DA05D9D4FFF7B0FDC01B022813
:1009D000F7D936E7052B04D12B6F43F004032B67BF
:1009E000D0E72A6F22F001022A672A6F22F0040260
:1009F0002A67002BCAD1FFF799FD41F288380746D4
:100A00002B6F9807CBD5FFF791FDC01B4045F7D959
:100A100017E7FFF78BFDC01B4045BDD911E7184D07
:100A2000AB6803F00C03082B47D0194E00230228B3
:100A3000336035D1FFF77AFD07462B68990129D439
:100A4000226AE3691343626A43EA8213E26A43EA71
:100A50000263A26A0A4C5208013A43EA02436B60FD
:100A600001233360FFF762FD054623689A013FF5D5
:100A7000BBAEFFF75BFD401B0228F6D9E1E600BFE5
:100A80000038024000004742800E4742007000409C
:100A900060004742FFF74AFDC01B0228CDD9D0E6CF
:100AA000FFF744FD04462B689B017FF59DAEFFF7E1
:100AB0003DFD001B0228F6D9C3E601283FF4C2AE73
:100AC000A868E36900F480029A427FF479AE226A52
:100AD00000F03F0393427FF473AE626A47F6C0733F
:100AE000034093427FF46CAEA26A00F44033934219
:100AF0007FF466AEE36A00F07060C01A18BF012090
:100B0000A0E600BF134908B58B6803F00C03042B63
:100B100003D0082B03D0104808BD104808BD4A6810
:100B20004B68496813F4800314BF0C480A48C1F3AA
:100B3000881118BF002302F03F02A1FB0001FFF75C
:100B400047FB044B5B68C3F3014301335B00B0FB1D
:100B5000F3F008BD003802400024F40000127A00CF
:100B60002DE9F0410D46044610B90120BDE8F081A1
:100B7000444B1A6802F00F028A4229D321688F077A
:100B80002ED4C80741D43F4B1A6802F00F02954299
:100B900067D3226851076DD4130707D53A4A2169F4
:100BA000936823F4604343EAC1039360FFF7AAFF0D
:100BB000354B364A9B68C3F30313D35CD840344BA0
:100BC0001860344B186802F019F80020BDE8F08175
:100BD000CAB21A701B6803F00F039942C5D1CDE762
:100BE000294B11F0040F1EBF9A6842F4E0529A603C
:100BF0000E0742BF9A6842F460429A609A68A06801
:100C000022F0F00202439A60BBE762681E4B012AA1
:100C10001DD11B6813F4003FA7D01B4EB36823F00F
:100C200003031343B360FFF781FC41F288380746A2
:100C3000B368626803F00C03B3EB820FA3D0FFF735
:100C400075FCC01B4045F3D90320BDE8F081911E1F
:100C500001291B6802D813F0007FDDE713F0020FB3
:100C6000DAE7EAB21A701B6803F00F039D427FF4C3
:100C70007CAF8EE70449E0688B6823F4E0530343BC
:100C80008B6089E7003C024000380240A62D000836
:100C90000C00002004000020044B054A9B68C3F3AD
:100CA0008223D35C034A1068D84070470038024062
:100CB000B62D00080C0000200F2303600B4B9A6830
:100CC00002F0030242609A6802F0F00282609A68C1
:100CD00002F4E052C2609B68DB0803F4E053036156
:100CE000034B1B6803F00F030B6070470038024092
:100CF000003C024070470368DA6842F00102DA60A3
:100D00009A6802F00702062A1EBF1A6842F0010222
:100D10001A6000207047704770477047704703683B
:100D20001A69910710B504460ED5DA6892070BD5FB
:100D30006FF002021A619B6901229B07027777D04C
:100D4000FFF7EAFF0023237723681A69500710D5BD
:100D5000DA6851070DD56FF004021A619B6902220F
:100D600013F4407F2277204668D0FFF7D5FF002399
:100D7000237723681A6912070FD5DA6810070CD594
:100D80006FF008021A61DB69042299072277204676
:100D90005AD0FFF7C1FF0023237723681A69D206D0
:100DA00010D5DA68D0060DD56FF010021A61DB6934
:100DB000082213F4407F227720464BD0FFF7ACFF88
:100DC0000023237723681A69D10708D5DA68D20788
:100DD00005D56FF001021A61204601F0E3FE236899
:100DE0001A69100608D5DA68110605D56FF0800279
:100DF0001A61204600F0B7F823681A69520608D530
:100E0000DA68500605D56FF040021A612046FFF7F8
:100E100085FF23681A69910622D5DA6892061FD5E4
:100E20006FF0200220461A61BDE8104000F09AB829
:100E3000FFF771FF2046FFF770FF83E7FFF76BFFB7
:100E40002046FFF76AFF92E7FFF765FF2046FFF7AE
:100E500064FFA0E7FFF75FFF2046FFF75EFFAFE705
:100E600010BD0000304A0368904212D0B0F1804FAC
:100E70000FD0A2F57C4290420BD002F580629042E6
:100E800007D002F58062904203D002F5784290428A
:100E900019D14A6823F070031343234A904229D0A2
:100EA000B0F1804F26D0A2F57C42904222D002F5CC
:100EB000806290421ED002F5806290421AD002F504
:100EC0007842904216D0194A904213D002F58062BF
:100ED00090420FD002F5806290420BD0A2F598327A
:100EE000904207D002F58062904203D002F5806202
:100EF000904203D1CA6823F4407313434A6923F034
:100F00008003134303608B68C3620B688362064BE4
:100F1000984203D003F58063984201D10B690363C3
:100F200001234361704700BF0000014000400140C1
:100F300010B50446A0B190F83D3003F0FF021BB994
:100F400080F83C20FFF7D6FE022384F83D3020686D
:100F5000211DFFF787FF012384F83D30002010BDDD
:100F6000012010BD70477047EFF3058313B16FF098
:100F700005007047EFF31083002BF8D1074B18687A
:100F8000022806D1EFF31183002BF0D14FF0FF3090
:100F900070470028FAD101221A60704780020020B1
:100FA00010B5EFF3058313B16FF0050010BDEFF33B
:100FB0001084002CF8D1094B1A68022A06D1EFF3ED
:100FC0001183002BF0D14FF0FF3010BD012AFAD170
:100FD00002221A6001F036F8204610BD800200207F
:100FE000F0B587B0144600220B460592EFF3058258
:100FF00072BBEFF310825ABB284A1268022A02D150
:10100000EFF3118222BB18B300228DF81320002CBD
:101010003CD0216809B90DF11301A569002D08BF65
:1010200018256A1E372A2F4635D86268D20732D46F
:10103000666986B1B208D4F808E0D4F80CC0BEF1F5
:10104000000F0AD0BCF1530F02D9246904B1AEB924
:10105000059807B0F0BD8022EDE7BCF1000FF7D195
:101060002469002CF4D105AC0194009792B200F0F1
:10107000BCFF01281CBF00230593E9E7CDF808E079
:101080000194009500F07AFF0590E1E7182780228F
:101090000DF11301E7E70020DBE700BF800200202D
:1010A00008B5EFF3058313B16FF0050008BDEFF34A
:1010B0001083002BF8D1064B1B68022B03D1EFF3F2
:1010C0001183002BF0D110B101F012F9002008BDFE
:1010D00080020020034B0360034B0B6080231360EE
:1010E000704700BF2C0200202C000020034B03603F
:1010F000034B0B604FF4807313607047840600202D
:101100008402002000F1080343604FF0FF32C36007
:10111000036100238260036070470023036170470E
:1011200043684B609A688A609A6851609960036866
:1011300008610133036070470A68531C30B50AD157
:1011400003695A684A6091608B605960036808615E
:101150000133036030BD00F108035C682568AA42D2
:10116000EFD32346F9E74168826803698A608268A1
:1011700051605968884208BF5A60002202611A68AB
:10118000013A1A601868704782B0002301930D4B32
:101190001B68013308D04FF0500383F31188BFF36D
:1011A0006F8FBFF34F8FFEE74FF0500383F311882B
:1011B000BFF36F8FBFF34F8F019B002BFCD002B0AA
:1011C000704700BF0800002008480068006880F3EE
:1011D00008884FF0000080F3148862B661B6BFF350
:1011E0004F8FBFF36F8F00DF00BF000008ED00E0FE
:1011F000DFF80C00016841F47001016070470000E5
:1012000088ED00E04FF0807340F8043C074B40F855
:101210000C3C21F001016FF0020340F8081C40F87B
:10122000202C40F8243C4438704700BF8911000846
:10123000074B19680868B0E8F04F80F30988BFF3DE
:101240006F8F4FF0000080F311887047AFF300807C
:10125000F84200204FF0500383F31188BFF36F8FE3
:10126000BFF34F8F0A4A13680133012B13600DD16E
:10127000084B1B6813F0FF0F08D04FF0500383F3A7
:101280001188BFF36F8FBFF34F8FFEE7704700BF2A
:101290000800002004ED00E0084A136843B94FF04D
:1012A000500383F31188BFF36F8FBFF34F8FFEE7B7
:1012B000013B13600BB983F31188704708000020CD
:1012C000EFF30980BFF36F8F154B1A681EF0100FF4
:1012D00008BF20ED108A20E9F04F10602DE90900C9
:1012E0004FF0500080F31188BFF34F8FBFF36F8F23
:1012F00001F022F84FF0000080F3118809BC196852
:101300000868B0E8F04F1EF0100F08BFB0EC108A6C
:1013100080F30988BFF36F8F704700BFAFF3008081
:10132000F842002008B54FF0500383F31188BFF353
:101330006F8FBFF34F8F00F0D7FE18B1034B4FF004
:1013400080521A60002383F3118808BD04ED00E089
:10135000084A0949002313600B60084B4FF47A7167
:101360001B68B3FBF1F30649013B0B6007231360D5
:10137000704700BF10E000E018E000E00C00002023
:1013800014E000E0394B3A4A13B51968914208D18C
:101390004FF0500383F31188BFF36F8FBFF34F8F6C
:1013A000FEE71A68334B9A4208D14FF0500383F39B
:1013B0001188BFF36F8FBFF34F8FFEE72E4B1A7864
:1013C000D2B20192FF221A701B782C4ADBB28DF840
:1013D00003309DF8033003F050031370284B0722AD
:1013E0001A6000219DF80300000602F1FF340DD4BD
:1013F00001B11A601A68032A11D04FF0500383F329
:101400001188BFF36F8FBFF34F8FFEE79DF8032066
:101410005200D2B28DF8032001212246E2E71202E7
:1014200002F4E0621A60019B134ADBB21370154BA1
:101430001A6842F470021A601A6842F070421A6028
:10144000FFF786FF104B00241C60FFF7D1FE0F4A08
:10145000136843F040431360FFF7B6FE00F06CFFE3
:10146000FFF792FE204602B010BD00BF00ED00E085
:1014700071C20F4170C20F4100E400E0D8060020A5
:10148000DC06002020ED00E00800002034EF00E042
:10149000EFF305830F2B0ED9104A9B5C104A12788C
:1014A0009A4208D94FF0500383F31188BFF36F8F2E
:1014B000BFF34F8FFEE70B4B0B4A1B68126803F418
:1014C000E063934208D94FF0500383F31188BFF3D0
:1014D0006F8FBFF34F8FFEE7704700BFF0E300E070
:1014E000D80600200CED00E0DC06002010B50F4B04
:1014F0001A68824218D35C681919884201BF416892
:10150000184609195960446801198A4207D10849E7
:1015100009688A421FBF51681268091941609842E0
:10152000026018BF186010BD1346E1E7F0420020CA
:10153000E00600202DE9F041044600F0C7FD3E49D9
:101540003E4D0B680BBB3E4A56071FBFD01D20F017
:10155000070002F570531B1A14BF02464FF4705374
:101560001344083B23F00703364E0B6000207060E5
:10157000326058601860981A1360334B50601860DE
:10158000324B18604FF000432B602F68274216D172
:10159000002C41D004F1080358071CBF23F00703B7
:1015A000083363B1294A1668B342904607D8254AE2
:1015B00015686868834204D809688D4207D1002401
:1015C0002AE02C68002CF7D02A462546F1E7296846
:1015D00014681160C21A102A0FD9E818410708D000
:1015E0004FF0500383F31188BFF36F8FBFF34F8F1A
:1015F000FEE742606B60FFF779FF13496B6808688C
:10160000F61A1F4386424FF00003C8F8006038BF47
:101610000E6008346F602B6000F0F6FD630708D0A1
:101620004FF0500383F31188BFF36F8FBFF34F8FD9
:10163000FEE72046BDE8F081E0060020E4420020FD
:10164000E4060020F0420020EC420020E8420020A6
:1016500010B5044670B3184A50F8043C126813429F
:1016600008D14FF0500383F31188BFF36F8FBFF39E
:101670004F8FFEE750F8081C41B14FF0500383F341
:101680001188BFF36F8FBFF34F8FFEE723EA02038A
:1016900040F8043C00F01AFD084A54F8043C116874
:1016A000A4F108000B441360FFF720FFBDE81040D1
:1016B00000F0AABD10BD00BFE4420020E8420020B7
:1016C00010B50446FFF7C6FDA46BFFF7E5FDB4FABD
:1016D00084F0400910BD70B51546026C866B044657
:1016E00042B905689DB9406800F038FF6560013671
:1016F000A66370BD6DB9806801F026FBA368226CFB
:1017000013446268A360934201D32368A36000205E
:10171000EDE7C06801F018FB236CE26821685B42CA
:101720001A448A42E2603EBF62689B18E360022D61
:10173000EDD10EB1013EEAE73046D8E7034610B4DA
:101740001A6C084662B1D9685C681144A142D9603C
:1017500024BF1968D960D9685DF8044B01F0F4BA68
:101760005DF8044B704770B50446FFF773FD94F8BD
:10177000455004F124066DB2002D14DCFF2384F8DB
:101780004530FFF789FDFFF765FD94F8445004F1FB
:1017900010066DB2002D12DCFF2384F84430BDE842
:1017A0007040FFF779BD636A002BE7D0304600F048
:1017B00037FE08B100F0BCFE013D6DB2DCE72369E5
:1017C000002BE9D0304600F02BFE08B100F0B0FE4F
:1017D000013D6DB2DEE7000038B50D46044640B964
:1017E0004FF0500383F31188BFF36F8FBFF34F8F18
:1017F000FEE7FFF72FFD206CE36B2268A2604343F6
:10180000D1181B1A13446160E3600021FF23A16318
:1018100084F8443084F8453095B9236963B104F104
:10182000100000F0FDFD38B10A4B4FF080521A60F5
:10183000BFF34F8FBFF36F8FFFF72EFD012038BD31
:1018400004F11000FFF75EFC04F12400FFF75AFCDE
:10185000F2E700BF04ED00E013B51C4640B94FF0BD
:10186000500383F31188BFF36F8FBFF34F8FFEE7F1
:1018700043B94FF0500383F31188BFF36F8FBFF369
:101880004F8FFEE74AB1D9B94FF0500383F3118867
:10189000BFF36F8FBFF34F8FFEE789B14FF0500357
:1018A00083F31188BFF36F8FBFF34F8FFEE74FF0C5
:1018B000500383F31188BFF36F8FBFF34F8FFEE7A1
:1018C00048230193019B482BF1D10123002908BF34
:1018D0002246E063216484F846302260194620469F
:1018E000FFF77AFF204602B010BD00002DE9FF4748
:1018F000894601921F46044640B94FF0500383F3D6
:101900001188BFF36F8FBFF34F8FFEE7002940F0C0
:101910008880036C002B00F084804FF0500383F329
:101920001188BFF36F8FBFF34F8FFEE7019E002E2C
:1019300000F082804FF0500383F31188BFF36F8F64
:10194000BFF34F8FFEE7019D1DB9FFF7A5FC0020F7
:1019500058E016B902A800F0A3FDFFF79DFC00F0C7
:10196000B5FBFFF777FC94F84430FF2B08BF84F8F1
:10197000448094F84530FF2B08BF84F84580FFF77A
:101980008BFC01A902A800F097FD002843D1FFF7C6
:1019900061FCA66BE56BFFF77FFCAE4235D1019988
:1019A00004F1100000F004FD2046FFF7DCFE00F01B
:1019B0002BFC38B94FF08053CAF80030BFF34F8F7B
:1019C000BFF36F8F0126FFF745FCA26BE36B9A42D2
:1019D00001D3022FB7D13A4649462046FFF77BFE96
:1019E000636A1BB104F1240000F01AFD38B1194BF1
:1019F0004FF080521A60BFF34F8FBFF36F8FFFF726
:101A00004BFC012004B0BDE8F0872046FFF7ABFE99
:101A100000F0FAFBD6E72046FFF7A5FE00F0F4FB46
:101A200095E7022F02D1E36B012B0AD100F086FD6E
:101A300000283FF47BAF00264FF00008DFF814A029
:101A4000C1E74FF0500383F31188BFF36F8FBFF3EB
:101A50004F8FFEE704ED00E02DE9F84388469146FC
:101A60001F46044640B94FF0500383F31188BFF37B
:101A70006F8FBFF34F8FFEE709BB036CFBB14FF0D5
:101A8000500383F31188BFF36F8FBFF34F8FFEE7CF
:101A900004F1240000F0C4FC002834D0B9F1000F98
:101AA00031D00120C9F8000086F31188BDE8F88321
:101AB00001356DB284F8455025E00020F4E7022F8F
:101AC00002D1E36B012B20D1FFF7E2FCEFF311868B
:101AD0004FF0500383F31188BFF36F8FBFF34F8F25
:101AE000A26BE36B9A4201D3022FE6D194F84550E2
:101AF0003A466DB241462046FFF7EDFD6B1CD7D14B
:101B0000636A002BC4D10120CEE74FF0500383F36A
:101B10001188BFF36F8FBFF34F8FFEE72DE9F043BE
:101B200085B088460192044640B94FF0500383F3D4
:101B30001188BFF36F8FBFF34F8FFEE7002940F08E
:101B40008680036C002B00F082804FF0500383F3FB
:101B50001188BFF36F8FBFF34F8FFEE7019E002EFA
:101B60007AD04FF0500383F31188BFF36F8FBFF328
:101B70004F8FFEE7019D1DB9FFF78EFB002052E05D
:101B800016B902A800F08CFCFFF786FB00F09EFA65
:101B9000FFF760FB94F84430FF2B08BF84F84470D3
:101BA00094F84530FF2B08BF84F84570FFF774FBAD
:101BB00001A902A800F080FC00283DD12046FFF7D3
:101BC0007FFD98B3019904F1240000F0F1FB204659
:101BD000FFF7C9FD00F018FB38B94FF08053C9F882
:101BE0000030BFF34F8FBFF36F8F0126FFF732FB3B
:101BF000A56B002DBED041462046013DFFF79EFD5E
:101C0000A563236963B104F1100000F009FC38B149
:101C1000134B4FF080521A60BFF34F8FBFF36F8F9B
:101C2000FFF73AFB012005B0BDE8F0832046FFF73F
:101C30009AFD00F0E9FAD8E72046FFF794FD00F09E
:101C4000E3FA2046FFF73CFD0028CED096E700F0EF
:101C500075FC002882D000260027DFF80490C5E735
:101C600004ED00E030B5074A002352F8335002EB90
:101C7000C3041DB942F83310606030BD0133082B36
:101C8000F3D130BDF448002070B504460D46164629
:101C9000FFF7E0FA94F84430FF2B04BF002384F8E8
:101CA000443094F84530FF2B04BF002384F84530BE
:101CB000FFF7F2FAA36B2BB93246294604F1240050
:101CC00000F090FB2046BDE87040FFF74CBD0000DF
:101CD0002DE9F0410646FFF7BDFA2D4B2D4C1A6851
:101CE0002D4F01321A602568002D46D126601B68F1
:101CF000012B1DD178191435FFF704FAB5F58C6F57
:101D0000F8D1DFF8C080254D4046FFF7FBF92846A3
:101D1000FFF7F8F92248FFF7F5F92248FFF7F2F943
:101D20002148FFF7EFF9214BC3F80080204B1D60DD
:101D3000204A1368013313601F4AF36A11681420A4
:101D40008B4200FB037006F1040188BF1360FFF7AC
:101D5000E7F9FFF7A1FA194B1B6863B12368DA6A48
:101D6000F36A9A4207D2164B4FF080521A60BFF3C3
:101D70004F8FBFF36F8FBDE8F081104B1B68002BB6
:101D8000D6D12368DA6AF36A9A4298BF2660CFE711
:101D900064470020F84200200443002090470020C0
:101DA000AC470020D8470020C4470020FC42002058
:101DB000004300207447002078470020C0470020DF
:101DC00004ED00E07C470020064A13681968064BC2
:101DD00019B94FF0FF321A6070471268D268D268A2
:101DE0005268F8E7FC420020A44700202DE9F047A4
:101DF0000A9CDDF82480266B02F18042013A06EB52
:101E000082069A4681464B1E26F0070604F13402EC
:101E10000F31587802F8010B13F8010F08B18B420B
:101E2000F7D1089D372D28BF37250027E562656467
:101E3000201D84F84370A764FFF76FF9C5F13805DA
:101E400004F11800FFF769F9E7642461A561646291
:101E500084F85070524649463046FFF7D3F9206067
:101E6000B8F1000F01D0C8F80040BDE8F08710B508
:101E700090F8513004463BB9006BFFF7E9FB204670
:101E8000BDE81040FFF7E4BB012BF9D0022B08D0CE
:101E90004FF0500383F31188BFF36F8FBFF34F8F61
:101EA000FEE710BD80B5DFF85C80124F124C134D79
:101EB000236863B9124B1B68012BF8D94FF080538C
:101EC000C8F80030BFF34F8FBFF36F8FEEE7FFF717
:101ED000C1F9FB68DE68301DFFF745F92B68013B4F
:101EE0002B602368013B2360FFF7D6F93046FFF7EC
:101EF000BEFFDDE7D8470020684700206447002088
:101F00000443002004ED00E0F8B5164B164D1E68A2
:101F10000446286804300F46FFF725F9631C2B465A
:101F200007D137B1296811480431BDE8F840FFF7FF
:101F3000F7B834441A68A642546007D90C4A1068AE
:101F40001968BDE8F8400431FFF7F6B8094A10688F
:101F500019680431FFF7F0F8074B1A68944238BF4C
:101F60001C60F8BDEC470020F8420020C447002068
:101F700000430020FC420020A447002070B586B03A
:101F80000B9D0C9C45B94FF0500383F31188BFF3B0
:101F90006F8FBFF34F8FFEE744B94FF0500383F3C9
:101FA0001188BFF36F8FBFF34F8FFEE7542604965F
:101FB000049E542E08D04FF0500383F31188BFF3D2
:101FC0006F8FBFF34F8FFEE72563022584F85150D2
:101FD00005AD01950A9D02940095FFF707FF204685
:101FE000FFF776FE059806B070BD2DE9F043074671
:101FF00085B09000884616469946FFF79BFA05463D
:10200000E8B15420FFF796FA0446A8B1002380F8FF
:1020100051300D9B056301930C9B02900093324657
:102020004B4641463846FFF7E1FE2046FFF750FE9B
:10203000012005B0BDE8F0832846FFF709FB4FF00B
:10204000FF30F6E710B588B0002407AA06A905A856
:1020500005940694FFF73EF8059B0293069B0193B7
:1020600000942346079A14491448FFF787FFA0B944
:1020700008B010BD4FF0500383F31188BFF36F8F8A
:10208000BFF34F8F0E4B4FF0FF321A600D4B1860AD
:102090000D4B1C60FFF776F9EAE700F0F3FA012830
:1020A000E8D00130E4D14FF0500383F31188BFF33F
:1020B0006F8FBFF34F8FFEE7882D0008A51E000825
:1020C000A4470020C0470020EC470020024A1368C4
:1020D00001331360704700BF70470020014B186840
:1020E000704700BFEC4700202DE9F84F3B4B1B68C1
:1020F000002B51D13A4B1C6801341C60BCB9394BE0
:102100001A68126842B14FF0500383F31188BFF38D
:102110006F8FBFF34F8FFEE7334A1968106818605E
:102120001160324A136801331360FFF74DFE304DE2
:10213000304F2B689C424FF0000B3CD3DFF8A4805B
:10214000DFF8C090D8F80020126862BB4FF0FF3271
:102150002A6030E006F1040A5046FFF704F8B16A3D
:1021600019B106F11800FEF7FEFFF06AD9F8001069
:10217000214B88424FF0140288BFC9F80000514635
:1021800002FB0030FEF7CCFF3868F16AC26A914268
:1021900028BF4FF0010BD5E7184A136801331360CD
:1021A0004FF0000B11E0D8F80020D268D6687168B3
:1021B0008C42CFD229603A680F4BD16A14224A432D
:1021C0009A58022A28BF4FF0010B0D4A1268002AC4
:1021D00018BF4FF0010B5846BDE8F88F704700203C
:1021E000EC470020FC42002000430020A8470020CC
:1021F000A4470020F8420020044300206C47002040
:10220000F0470020784700202DE9F0412F4C23684B
:1022100043B94FF0500383F31188BFF36F8FBFF3BF
:102220004F8FFEE7FFF716F82368013B2360246811
:102230002CB10024FFF730F82046BDE8F081244B94
:102240001B68002BF5D0234E234FDFF8A0803368A6
:10225000E3B90CB1FFF7B8FD204D2C6844B1204E16
:102260000127FFF741FF00B13760013CF9D12C6035
:102270001B4B1B68002BDCD01A4B4FF080521A60AE
:10228000BFF34F8FBFF36F8F0124D3E7F368DC6890
:10229000251D04F11800FEF766FF2846FEF763FFD0
:1022A000E36A3A681420934200FB0380294688BF02
:1022B0003B60FEF735FF0C4BE26A1B68DB6A9A4213
:1022C00022BF074B01221A60C1E700BF7047002000
:1022D00064470020AC470020784700206C4700206E
:1022E000F047002004ED00E0F84200200443002005
:1022F00008B540B90E4B4FF080521A60BFF34F8FB4
:10230000BFF36F8F08BD0B4B196841B14FF05003FD
:1023100083F31188BFF36F8FBFF34F8FFEE7FFF793
:10232000D5FEFFF7F1FDFFF76FFF0028E2D008BDF3
:1023300004ED00E070470020184B1A68184BF0B508
:1023400012B101221A60F0BD164D1A60164A2B68B0
:102350001427164607FB03F1501854588CB14468F3
:102360000831646844600A44944204BF6268426071
:10237000142202FB03625268D1680C4A11602B6080
:10238000F0BD43B94FF0500383F31188BFF36F8F53
:10239000BFF34F8FFEE7013BDCE700BF7047002033
:1023A000F04700207847002004430020F842002036
:1023B00010B50C4640B94FF0500383F31188BFF3BA
:1023C0006F8FBFF34F8FFEE7054B19681831FEF78B
:1023D000B3FE20460121BDE81040FFF795BD00BFC8
:1023E000F842002038B50D46144640B94FF050036E
:1023F00083F31188BFF36F8FBFF34F8FFEE7074B57
:1024000019681831FEF78CFE002C21460CBF2846B7
:102410004FF0FF30BDE83840FFF776BDF8420020AE
:1024200038B5C368DC6844B94FF0500383F31188B2
:10243000BFF36F8FBFF34F8FFEE704F118052846F7
:10244000FEF791FE104B1B68DBB9251D2846FEF7F1
:102450008AFE0E4AE36A11688B4288BF13600C4AF9
:102460001420294600FB0320FEF75AFE094BE26ABE
:102470001B68DB6A9A4283BF074B0120186000206B
:1024800038BD29460548EFE770470020784700200F
:1024900004430020F8420020F0470020AC47002011
:1024A000034B1B680360034B1B684360704700BF0E
:1024B000A8470020EC47002070B50C46054640B9FF
:1024C0004FF0500383F31188BFF36F8FBFF34F8F2B
:1024D000FEE741B94FF0500383F31188BFF36F8FCC
:1024E000BFF34F8FFEE7FEF7B5FE0F4B69681A6822
:1024F0002368581C0ED00D482E680068864201D013
:102500008A420ED2521A9A4209D29B1A2360284656
:10251000FFF7C6FF0024FEF7BFFE204670BD002374
:1025200023600124F7E700BFEC470020A847002004
:10253000014B01221A607047F0470020054B1B68D1
:1025400033B1054B1B68002B0CBF022000207047E5
:1025500001207047C04700207047002038B504466E
:1025600008B9002038BD1B4B1B68984208D04FF0BB
:10257000500383F31188BFF36F8FBFF34F8FFEE7D4
:10258000836C43B94FF0500383F31188BFF36F8F0F
:10259000BFF34F8FFEE7C16A426C013B91428364F7
:1025A000DFD0002BDDD1051D2846FEF7DCFD636C76
:1025B000E362C3F13802A261074A11688B4288BF07
:1025C0001360064A142000FB03202946FEF7A8FDED
:1025D000012038BDF8420020784700200443002045
:1025E000F7B5114CFEF736FE2568BDB90F4F104EFA
:1025F0003846FEF787FD3046FEF784FD0D4B0E4A48
:102600001F600E4B0C211E600A2000950C4BFFF73B
:1026100023F9206010B10B49FFF724FB03B0BDE89C
:10262000F040FEF739BE00BFE848002074480020A3
:1026300088480020F4470020FC470020F84700208D
:10264000A04800208D2D0008914208B5416000612E
:102650000AD8D21A83699A420DD2084B011D186814
:10266000FEF76AFD002008BD9A4201D2994202D2CB
:10267000011D034BF3E7012008BD00BFF847002010
:10268000F447002010B588B0FFF7AAFF134B1B6872
:1026900043B94FF0500383F31188BFF36F8FBFF33B
:1026A0004F8FFEE7002407AA06A905A80594069403
:1026B000FEF71CFD059B0293069B019302230093EA
:1026C000079A074907482346FFF758FC064B18604E
:1026D0000028DED0012008B010BD00BFE84800206F
:1026E000922D0008C1270008EC48002030B515469F
:1026F00085B01A46034640B94FF0500383F3118862
:10270000BFF36F8FBFF34F8FFEE70D4C206880B192
:1027100005290191029503930DDCFFF70FFF0023BC
:10272000022808BF089A206818BF1A4601A9FFF7B7
:10273000DDF805B030BD002301A9FFF78DF9F8E7FA
:10274000E84800202DE9F3411B4D4FF000082B68AD
:102750001A6832B9194A11682960136002B0BDE8DD
:10276000F081DB68DC681E68271D3846FEF7FBFC3D
:10277000636A20469847E369012BE8D1A369334493
:102780009E4206D26360246139462868FEF7D4FC75
:10279000DDE70023CDF80080324619462046FFF7DA
:1027A000A5FF0028D3D14FF0500383F31188BFF366
:1027B0006F8FBFF34F8FFEE7F4470020F8470020EC
:1027C0002DE9F04F6E4DDFF8C88189B02F462B6898
:1027D000D3F800B0BBF1000F43D0DB68D3F8009012
:1027E000FFF774FCFFF77AFC664B1A68904282464A
:1027F0001E4638D20393FFF7A5FF039B0124C3F8BD
:1028000000A0002C40F08280BBF1000F63D0D145C6
:102810007AD8FFF7F9FC3B68DB68D3F80CB00BF112
:102820000400FEF7A0FCDBF81C30012B1DD1DBF807
:1028300018104B46524649445846FFF705FFA0B1D1
:10284000009423464A4621465846FFF74FFF60B999
:102850004FF0500383F31188BFF36F8FBFF34F8F97
:10286000FEE7D946BCE70024C9E7DBF82430584628
:102870009847DFF81891D9F80000002205A9FFF762
:102880004DF90028A3D0059B002BF4DB079C63695E
:1028900013B1201DFEF767FCFFF720FC3368984258
:1028A000834601D2FFF74EFF059AC6F800B0092A09
:1028B000E1D80123934013F4047A4ED113F0C70FEB
:1028C00027D19B06D7D594F82830002BD3D12046AA
:1028D000FEF7BEFECFE72C4B1B681A68B2FA82F2F5
:1028E00052092A4BA9EB0A011868FFF7CDF9FFF747
:1028F0008BFC0028BDD14FF08053C8F80030BFF3E7
:102900004F8FBFF36F8FB4E72246EAE7FFF77CFCF7
:10291000AFE7A169069B5A4619442046FFF794FE8B
:102920000028A8D0636A20469847E369012BA2D10A
:10293000A2690699CDF800A00A44534651462046A4
:10294000FFF7D4FE002896D14FF0500383F311888F
:10295000BFF36F8FBFF34F8FFEE70699A16141B9B7
:102960004FF0500383F31188BFF36F8FBFF34F8F86
:10297000FEE75B465A4659442046FFF765FE7AE774
:10298000F44700209C480020F8470020E848002039
:1029900004ED00E010B5054C20464FF48051FDF7E2
:1029A00004FF4FF4FA70FEF77BFBF5E7000C0240E2
:1029B00010B5054C20464FF40051FDF7F6FE4FF4DC
:1029C000FA70FEF76DFBF5E7000C024030B595B0EC
:1029D0003022002108A800F0C2F90021142203A827
:1029E00000F0BDF900241D4B01941A6C42F0805296
:1029F0001A641B6C03F080530193019B184B0294E3
:102A00001A6842F480421A601B6803F48043029300
:102A1000029B012308934FF4803309934FF4800302
:102A20000F93082310934FF4A8730225119308A85D
:102A3000072313930E951295FDF7BEFE0F23039304
:102A40004FF4A053069305214FF4805303A8049537
:102A500005940793FEF784F815B030BD00380240A6
:102A60000070004000B597B0FDF73AFDFFF7AEFFEC
:102A7000142200210DA800F072F900243E4B0094AE
:102A80001A6B3E4842F080021A631A6B02F0800211
:102A90000092009A01941A6B42F001021A631A6BB9
:102AA00002F001020192019A02941A6B42F00202B2
:102AB0001A631A6B02F002020292029A03941A6BD2
:102AC00042F008021A631B6B03F0080322460393CB
:102AD0004FF210010125039BFDF762FE284B2948A8
:102AE0000D950DA90E930F94FDF77AFD04230DA902
:102AF00025480D930E940F94FDF772FD4FF48063FB
:102B00000D9302230E930DA905231F4811930F94D3
:102B10001094FDF765FD4FF210030DA917480D93B2
:102B20000E950F941094FDF75BFDFEF71DFA24221D
:102B3000214604A800F013F98026144B144804938E
:102B4000092504AA214609960A95FEF749FA114B70
:102B50002422186021460DA800F001F90E4B0F4801
:102B60000D930DAA214612961395FEF739FA0C4BD8
:102B70001860FEF715FAFEE700380240000C02402C
:102B80000000121000000240000402409A2D0008CC
:102B90009529000834490020A02D0008B12900081B
:102BA000384900200268034B9A4201D1FDF7B2BCBC
:102BB000704700BF0014004007B50F4B0022009281
:102BC000596C41F480415964596C01F48041009181
:102BD00000990192196C41F0805119641B6C03F04B
:102BE000805301930F216FF00100019BFDF7B6FCAC
:102BF00003B05DF804FB00BF0038024030B5014669
:102C000089B000223720FDF7A9FC3720FDF7DAFC58
:102C10000025154B02951A6C144C42F020021A64E0
:102C20001B6C03F02003029301A903A8029BFEF78B
:102C300043F8FEF731F80E4B236040F2E733E360D0
:102C400040000C4BB0FBF3F001386060204625617A
:102C5000A560FEF76DF920B92046FEF74CF809B0E3
:102C600030BD0120FBE700BF003802403C49002096
:102C70000014004040420F007047FEE7FEE7FEE709
:102C8000FEE770470148FEF74AB800BF3C49002004
:102C9000054BD3F8882042F47002C3F888204FF027
:102CA00000629A60704700BF00ED00E0DFF834D0AA
:102CB000002103E00C4B5B58435004310B480C4B94
:102CC00042189A42F6D30B4A02E0002342F8043B32
:102CD000094B9A42F9D3FFF7DBFF00F011F8FFF739
:102CE000C1FE704700000220D02D00080000002027
:102CF00010000020100000207C490020FEE70000AA
:102D000070B50D4E0D4CA41BA4100025A54209D191
:102D10000B4E0C4C00F02CF8A41BA4100025A5426F
:102D200005D170BD56F8253098470135EEE756F8C5
:102D3000253098470135F2E7C82D0008C82D000856
:102D4000C82D0008CC2D000810B5431E0A4491423E
:102D500000D110BD11F8014B03F8014FF7E7024411
:102D60000346934200D1704703F8011BF9E70000C6
:102D7000F8B500BFF8BC08BC9E467047F8B500BF68
:082D8000F8BC08BC9E46704738
:102D880049444C4500546D725100546D722053767D
:102D980063005461736B31005461736B320000003F
:102DA80000000000000001020304060708090000F3
:082DB800000001020304000009
:082DC00040D4FF7F0100000078
:042DC800B501000849
:042DCC009101000869
:102DD0000100000010000000AAAAAAAA0024F40022
:0400000508002CAD16
:00000001FF
